:020000040000fa
:080000000002040000000000f2
:020000040000fa
:04000800ea02000008
:020000040000fa
:04000c00ea02000004
:020000040000fa
:04001000ea02000000
:020000040000fa
:04001400ea020000fc
:020000040000fa
:04001800ea020000f8
:020000040000fa
:04001c00ea020000f4
:020000040000fa
:04002000ea020000f0
:020000040000fa
:04002400ea020000ec
:020000040000fa
:04002800ea020000e8
:020000040000fa
:04002c00ea020000e4
:020000040000fa
:04003000ea020000e0
:020000040000fa
:04003400ea020000dc
:020000040000fa
:04003800ea020000d8
:020000040000fa
:04003c00ea020000d4
:020000040000fa
:04004000ea020000d0
:020000040000fa
:04004400ea020000cc
:020000040000fa
:04004800ea020000c8
:020000040000fa
:04004c00ea020000c4
:020000040000fa
:04005000ea020000c0
:020000040000fa
:04005400ea020000bc
:020000040000fa
:04005800ea020000b8
:020000040000fa
:04005c00ea020000b4
:020000040000fa
:04006000ea020000b0
:020000040000fa
:04006400ea020000ac
:020000040000fa
:04006800ea020000a8
:020000040000fa
:04006c00ea020000a4
:020000040000fa
:04007000ea020000a0
:020000040000fa
:04007400ea0200009c
:020000040000fa
:04007800ea02000098
:020000040000fa
:04007c00ea02000094
:020000040000fa
:04008000ea02000090
:020000040000fa
:04008400ea0200008c
:020000040000fa
:04008800ea02000088
:020000040000fa
:04008c00ea02000084
:020000040000fa
:04009000ea02000080
:020000040000fa
:04009400ea0200007c
:020000040000fa
:04009800ea02000078
:020000040000fa
:04009c00ea02000074
:020000040000fa
:0400a000ea02000070
:020000040000fa
:0400a400ea0200006c
:020000040000fa
:0400a800ea02000068
:020000040000fa
:0400ac00c802000086
:020000040000fa
:0400b000ea02000060
:020000040000fa
:0400b400ea0200005c
:020000040000fa
:0400b800ea02000058
:020000040000fa
:0400bc00ea02000054
:020000040000fa
:0400c000ea02000050
:020000040000fa
:0400c400ea0200004c
:020000040000fa
:0400c800ea02000048
:020000040000fa
:0400cc00ea02000044
:020000040000fa
:0400d000ea02000040
:020000040000fa
:0400d400ea0200003c
:020000040000fa
:0400d800ea02000038
:020000040000fa
:0400dc00ea02000034
:020000040000fa
:0400e000ea02000030
:020000040000fa
:0400e400ea0200002c
:020000040000fa
:0400e800ea02000028
:020000040000fa
:0400ec00ea02000024
:020000040000fa
:0400f000ea02000020
:020000040000fa
:0400f400ea0200001c
:020000040000fa
:0400f800ea02000018
:020000040000fa
:0400fc00ea02000014
:020000040000fa
:04010000ea0200000f
:020000040000fa
:04010400ea0200000b
:020000040000fa
:04010800ea02000007
:020000040000fa
:04010c00ea02000003
:020000040000fa
:04011000ea020000ff
:020000040000fa
:04011400ea020000fb
:020000040000fa
:04011800ea020000f7
:020000040000fa
:04011c00ea020000f3
:020000040000fa
:04012000ea020000ef
:020000040000fa
:04012400ea020000eb
:020000040000fa
:04012800ea020000e7
:020000040000fa
:04012c00ea020000e3
:020000040000fa
:04013000ea020000df
:020000040000fa
:04013400ea020000db
:020000040000fa
:04013800ea020000d7
:020000040000fa
:04013c00ea020000d3
:020000040000fa
:04014000ea020000cf
:020000040000fa
:04014400ea020000cb
:020000040000fa
:04020800ea02000006
:020000040000fa
:04020c00ea02000002
:020000040000fa
:04021000ea020000fe
:020000040000fa
:04021400ea020000fa
:020000040000fa
:04021800ea020000f6
:020000040000fa
:04021c00ea020000f2
:020000040000fa
:04022000ea020000ee
:020000040000fa
:04022400ea020000ea
:020000040000fa
:04022800ea020000e6
:020000040000fa
:04022c00ea020000e2
:020000040000fa
:04023000ea020000de
:020000040000fa
:04023400ea020000da
:020000040000fa
:04023800ea020000d6
:020000040000fa
:04023c00ea020000d2
:020000040000fa
:04024000ea020000ce
:020000040000fa
:04024400ea020000ca
:020000040000fa
:04024800ea020000c6
:020000040000fa
:04024c00ea020000c2
:020000040000fa
:04025000ea020000be
:020000040000fa
:04025400ea020000ba
:020000040000fa
:04025800ea020000b6
:020000040000fa
:04025c00ea020000b2
:020000040000fa
:04026000ea020000ae
:020000040000fa
:04026400ea020000aa
:020000040000fa
:04026800ea020000a6
:020000040000fa
:04026c00ea020000a2
:020000040000fa
:04027000ea0200009e
:020000040000fa
:04027400ea0200009a
:020000040000fa
:04027800ea02000096
:020000040000fa
:04027c00ea02000092
:020000040000fa
:04028000ea0200008e
:020000040000fa
:04028400ea0200008a
:020000040000fa
:04028800ea02000086
:020000040000fa
:04028c00ea02000082
:020000040000fa
:04029000ea0200007e
:020000040000fa
:04029400ea0200007a
:020000040000fa
:04029800ea02000076
:020000040000fa
:04029c00ea02000072
:020000040000fa
:0402a000ea0200006e
:020000040000fa
:0402a400ea0200006a
:020000040000fa
:0402a800ea02000066
:020000040000fa
:0402ac00ea02000062
:020000040000fa
:0402b000ea0200005e
:020000040000fa
:0402b400ea0200005a
:020000040000fa
:0402b800ea02000056
:020000040000fa
:0402bc00ea02000052
:020000040000fa
:0402c000ea0200004e
:020000040000fa
:0402c400ea0200004a
:020000040000fa
:0402c800ea02000046
:020000040000fa
:0402cc00ea02000042
:020000040000fa
:0402d000ea0200003e
:020000040000fa
:0402d400ea0200003a
:020000040000fa
:0402d800ea02000036
:020000040000fa
:0402dc00ea02000032
:020000040000fa
:0402e000ea0200002e
:020000040000fa
:0402e400ea0200002a
:020000040000fa
:0402e800ea02000026
:020000040000fa
:0402ec00ea02000022
:020000040000fa
:0402f000ea0200001e
:020000040000fa
:0402f400ea0200001a
:020000040000fa
:0402f800ea02000016
:020000040000fa
:0402fc00ea02000012
:020000040000fa
:04030000ea0200000d
:020000040000fa
:04030400ea02000009
:020000040000fa
:04030800ea02000005
:020000040000fa
:04030c00ea02000001
:020000040000fa
:04031000ea020000fd
:020000040000fa
:04031400ea020000f9
:020000040000fa
:04031800ea020000f5
:020000040000fa
:04031c00ea020000f1
:020000040000fa
:04032000ea020000ed
:020000040000fa
:04032400ea020000e9
:020000040000fa
:04032800ea020000e5
:020000040000fa
:04032c00ea020000e1
:020000040000fa
:04033000ea020000dd
:020000040000fa
:04033400ea020000d9
:020000040000fa
:04033800ea020000d5
:020000040000fa
:04033c00ea020000d1
:020000040000fa
:04034000ea020000cd
:020000040000fa
:04034400ea020000c9
:020000040000fa
:10040000af8020000eff27000e01880000000000d2
:10041000000020000000e000020032000001200087
:1004200020028800140007001d0107000000e00002
:1004300003003a00c06820000100200002003700dd
:100440000000200001002000810f70000100320038
:1004500014000700000020000000e000020032004d
:10046000000002000000000078040200000000000c
:100470000040da000000fe004440a9000000200017
:100480000000e0000300320000002000a00188000e
:100490004440a800000006008a1f78008b1f7800e7
:1004a0000000060091018800800478000000eb0045
:1004b0001a003700e284440032a0b4009905ba0063
:1004c000e284440032a0b4009906ba00e2844400f9
:1004d00032a0b4000006eb00476fde00fd07b2005b
:1004e000636ce10003003a00ebff07000000eb0043
:1004f0000a003700606ce10004003a00005deb0088
:100500008b05e900fdff3e00040037006168e10053
:10051000010032000086eb000b00070019c7ba008b
:100520001905ba000e04e00003003a000a00e000da
:10053000e0ff3a0000000600fe07b2009e018800be
:100540008a047800f5ff3700395dba008b05e900b1
:100550000c003200295dba008b05e900080032006a
:100560000c00e00003003a00e284440032a0b40032
:10057000f5ff370019ddba008b05e900faff3a00f4
:100580008904e800e184440032a0b40000000600c1
:10059000801f78000000fa008820a90060c2a9002e
:1005a0004013800010408800100020002040880088
:1005b00000138000620060000000e00002003a00ca
:1005c00000408000401388000080fa004f0078004f
:1005d000004006000040da000000fe009440a90040
:1005e00080ff2f008421b6008440a900000006008f
:1005f00094c0a90080ff2f008a21b60084c0a90002
:10060000000006009720a90080ff2f009021b6006f
:100610008720a900000006008440a900e7006000d0
:10062000f28f2f00c808dd00230580000301610060
:1006300068006000028170004300de00220588002f
:1006400061006000b1ff2f004200dd00a2048000c5
:100650008280600081007000a10488000000060014
:1006600084c0a900e7006000f28f2f00c808dd00f9
:1006700033058000030161006800600002817000a2
:100680004300de003205880061006000f1fb2f00ae
:100690004600dd00a20480008280600081007000be
:1006a000a1048800000006008720a900e700600080
:1006b000f2f82f00c408dd0083058000030161000b
:1006c00068006000028170004300de00820588003f
:1006d00061006000f1df2f004900dd00b2048000fe
:1006e0008280600081007000b10488000000060074
:1006f00083ff2f0044182000148a6100010c880039
:10070000120c8800200c88000000060083ff2f00d8
:10071000a4182000148a6100310c8800420c880063
:10072000500c88000000060083ff2f0004192000f1
:10073000148a6100610c8800720c8800800c8800ab
:1007400000000600220c800066016100e60f5100e7
:1007500002003200100c8800010c88000000060026
:10076000520c800066016100e60f51000200320069
:10077000400c8800310c880000000600820c8000cc
:1007800066016100e60f510002003200700c880023
:10079000610c8800000006008820a900e7006000c6
:1007a000f2f82f00c408dd00a305800003016100fa
:1007b00068006000028170004300de00a20588002e
:1007c00061006000d1ff2f0000004000c2048000e3
:1007d0008280600081007000c10488000000060073
:1007e00084e0a900e7006000f2ff2800cc08dd00eb
:1007f0003305800003016100680060000281700021
:100800004300de003205880061006000f1f72f0030
:100810004700dd00a204800082806000810070003b
:10082000a1048800000006008500a900e700600020
:1008300082ff2f0068006000430580000301610013
:100840004300de0002817000610060004205880004
:100850004800dd00f1ef2f00a204800082806000dc
:1008600081007000a1048800000006000621ef004e
:1008700061088800800888001061a9000000060057
:100880000a21ef0071088800900888000000060027
:1008900030088800000006005008880000000600ac
:0408a000000005004f
:020000040000fa
:1008a4000400fa00100798009e0090004119880087
:1008b4002023a800000000000019800061006000ef
:1008c4000000e000fcff32002003a90001188000b2
:1008d400010f78001e0078004200de00000f78004f
:1008e4001e0078000080fa00000006000c00fa00e8
:1008f4000040eb00204798000040eb003047980090
:100904000040eb00404798000040eb00504798003f
:100914000040eb00604798000040eb0070479800ef
:100924000040eb00004f98000040eb00104f98008f
:1009340030c1b300204f980062e2a80000082800ec
:10094400101388000000280000138800e422ef0040
:10095400e422ef0020ff070070ff2f002dff0700a7
:10096400c2122000a112200050ff2d005fff0700db
:100974001eff070070ff2f0038ff0700c21220007f
:10098400a112200050ff2d005fff070070ff2f0011
:1009940092ff07000000eb00bcff0700c11220001b
:1009a400f0f82f00b0ff070000002800800888003e
:1009b400210020000000eb0061ff0700210020005f
:1009c4000000eb0065ff07000dff070070ff2f001c
:1009d40034ff0700d2ff2f008080eb00d0ff2d00f2
:1009e40050ff0700d1ff2f000000eb0062ff07005b
:1009f40070ff2f008bff07000000eb00a5ff07002e
:100a04008080eb00f0f82f009cff07000001280015
:100a140090088800000e2000001988002223ef00af
:100a240020f0210020198800a0ff2f006019880001
:100a34000080eb00501988002e23ef003023ef00d4
:100a440021e3a800e0ff2f0052ff07000100370058
:100a540000000000d0168000620060000000e0008a
:100a640002003a00e7e2a90001003700e7e2a8002b
:100a7400d116800000042000008060000000e00027
:100a840005003a00d11680000008200000806000b4
:100a94000000e0000300320010c0b300004f9800d3
:100aa400020037000040eb00004f98002040800017
:100ab400e10f5000e6ff3a000428ef0030408000c8
:100ac400e20f500058003200e20f500003003c00d7
:100ad400e10f5000230032008b003700e30f500079
:100ae4007c003200e40f500087003a000628ef0033
:100af4002e4890000080fb00004088001e00780013
:100b0400e10f500003003a00104080002047980095
:100b1400130037001e0078000010a20000f0a700a8
:100b24000000ea000000e9004f00de008040780089
:100b34001e0178006c00690000f0a7000000ea00c4
:100b44000000e9004f00de000040780000c06800ab
:100b54000004e0000200320010408000604798006a
:100b64006b00370011408000010f78001e007800f0
:100b74000000a20000f0a7000000ea000000e90065
:100b84004f00de00804078001e0178006b00690091
:100b940000f0a7000000ea000000e9004f00de00ba
:100ba4000040780000c068000004e0000200320049
:100bb4000028ef001b0037001e0078000010a20080
:100bc40000f0a7000000ea000000e9004f00de008a
:100bd400804078001e0178006c00690000f0a700d6
:100be4000000ea000000e9004f00de000040780049
:100bf40000c068000004e000040032004e40900091
:100c04000080fb0000408800060037001e007800ca
:100c1400e30f500003003a001e4890000080fb00e0
:100c2400004088003a0037001e0078000000a2004f
:100c340000f0a7000000ea000000e9004f00de0019
:100c4400804078001e0178006b00690000f0a70066
:100c54000000ea000000e9004f00de0000407800d8
:100c640000c068000004e000020032000028ef0029
:100c7400170037001e0078000010a20000f0a70043
:100c84000000ea000000e9004f00de008040780028
:100c94001e0178006c00690000f0a7000000ea0063
:100ca4000000e9004f00de000040780000c068004a
:100cb4000004e000020032000028ef0004003700c6
:100cc4001e007800e30f500001003a000028ef00f6
:100cd4000f0037000028ef001e007800e10f5000dd
:100ce40003003a00104080003047980005003700a8
:100cf4001e007800e20f500002003a00104080000d
:100d040070479800020037000628ef00000000003a
:040d140050ff370055
:020000040000fa
:100d180008080000020000000200000014000000a3
:100d280000080000080000000000000000000000ab
:020000040000fa
:0200000401f009
:04000800ffff0000f6
:020000040000fa
:0200000401f009
:04000c007bff000076
:020000040000fa
:0200000401f009
:040010003eff0000af
:020000040000fa
:0200000401f009
:040014007fff00006a
:00000001FF
